:020000040801F1
:1000000000C000207D3B0308FD420108FF420108BB
:1000100003430108074301080B43010800000000E7
:100020000000000000000000000000000F43010875
:1000300011430108000000001343010815430108A3
:10004000973B0308973B0308973B0308973B03083C
:10005000973B0308973B0308973B0308973B03082C
:10006000973B0308973B0308973B0308973B03081C
:10007000973B0308973B0308973B0308973B03080C
:10008000973B0308973B0308973B03081743010876
:100090001F430108973B0308973B0308973B03085E
:1000A000973B0308973B0308973B0308973B0308DC
:1000B000D3B70108973B0308973B0308973B030816
:1000C000973B0308973B0308973B0308973B0308BC
:1000D000973B0308973B0308973B0308973B0308AC
:1000E000973B0308973B0308973B0308973B03089C
:1000F000973B0308973B0308973B0308973B03088C
:10010000973B030827430108973B0308973B0308E5
:10011000973B0308973B0308973B03082DBA010858
:10012000973B0308973B0308973B0308973B03085B
:10013000DFF80CD024F076F9004800476713010877
:1001400000C0002000B58FB00121080222F005FB9D
:100150000121612022F00EFB4FF6B300ADF838000C
:1001600003208DF83A0018208DF83B000EA9FE48B8
:1001700022F044F84FF4F060ADF838000EA9FB48C7
:1001800022F03CF84020ADF8380003208DF83A000A
:1001900048208DF83B000EA9F34822F02FF80120EB
:1001A000019003200290022003900120049010206F
:1001B0000590022006900020079008904FF4C02080
:1001C000099000200A900B9001A80C900D9005A8B2
:1001D00021F06FFD0121102021F076FE0FB000BD4F
:1001E00000219022E24B1A700022E24B1A70E24A80
:1001F000116801700A0A42700A0C82700A0EC270FD
:10020000704701464FF480708A88521C8A808A8821
:10021000402A11D100228A804A88521C4A804A888A
:10022000B2F5806F08D100224A800A88521C0A80E9
:100230000A88012A00D14000704700210020702266
:10024000CB4B1A70CC4A117801F001020AB101209F
:1002500006E001F04002402A01D1402000E00020E9
:10026000704730B54FF080744025FFF7E6FF054634
:1002700003E0FFF7E2FF0546641E402D01D0002C8D
:10028000F7D10CB94FF48065284630BD2DE9FF4702
:1002900007461C460025A8464FF480794026AA460A
:1002A00040E08020B24908700020B2490870087010
:1002B000BDF80610BDF8040001EB8020BDF8081061
:1002C00001EB8010AB490870BDF80610BDF80400C2
:1002D00001EB8020BDF8081001EB8010000AA54951
:1002E00008704FEAC82000F5006A03E0785DA24973
:1002F00008706D1C5545F9D310209D49087000BF4A
:100300004021994822F00DF80028F9D0FFF7A9FF05
:100310000646402E06D108F10108641E01A8FFF729
:1003200070FF814624B1B9F5807F01D1402EB8D04D
:1003300046EA090004B0BDE8F0872DE9FF4706460C
:100340001C46002500274FF480784FF04009AA464C
:1003500038E0002086490870864908700870BDF8AA
:100360000610BDF8040001EB8020BDF8081001EB79
:10037000801080490870BDF80610BDF8040001EB3C
:100380008020BDF8081001EB8010000A7949087040
:1003900030207749087000BF4021734821F0C1FF29
:1003A0000028F9D0F80200F5006A03E072480078EE
:1003B00070556D1C5545F9D37F1C641E01A8FFF7CD
:1003C00020FF804614B1B8F5807FC2D0FFF749FF07
:1003D000814649EA080004B0BDE8F0872DE9FF47EF
:1003E00007461C460025A8464FF480794026AA46B9
:1003F00041E080205E49087000205E4908700820B6
:100400000870BDF80610BDF8040001EB8020BDF8AF
:10041000081001EB801057490870BDF80610BDF8B0
:10042000040001EB8020BDF8081001EB8010000AE9
:10043000504908704FEA881000F1400A03E0785DE7
:100440004D4908706D1C5545F9D310204849087076
:1004500000BF4021444821F064FF0028F9D0FFF795
:1004600000FF0646402E06D108F10108641E01A8CF
:10047000FFF7C7FE814624B1B9F5807F01D1402E38
:10048000B7D046EA090004B0BDE8F0872DE9FF4780
:1004900006461C46002700254FF480784FF040099F
:1004A000AA4639E000203249087032490870082015
:1004B0000870BDF80610BDF8040001EB8020BDF8FF
:1004C000081001EB80102B490870BDF80610BDF82C
:1004D000040001EB8020BDF8081001EB8010000A39
:1004E0002449087030202249087000BF40211E486E
:1004F00021F017FF0028F9D0B80100F1400A03E00D
:100500001D48007870556D1C5545F9D37F1C641E3D
:1005100001A8FFF776FE804614B1B8F5807FC1D000
:10052000FFF79FFE814649EA080004B0BDE8F08766
:1005300013B560200E490870BDF80210BDF8000028
:1005400001EB8020BDF8041001EB80100949087010
:10055000BDF80210BDF8000001EB8020BDF80410CA
:1005600001EB8010000A09E000140140001801406E
:100570000000057000000670000004700949087052
:10058000D0200949087000BF4021084821F0C9FE69
:100590000028F9D0FFF765FE1CBDFF200249087056
:1005A00040207047000006700000057000140140F4
:1005B00008B50121102022F0DDF84FF40050ADF80D
:1005C000000003208DF8020014208DF80300694616
:1005D000744821F013FE08BD10B521F05DFF4FF403
:1005E000803021F079FF21F0B6FF6F49087008468E
:1005F0000078012827D1102020F0C8FF022020F029
:10060000B1FF002021F0EDFF002021F0FCFF4FF4AE
:10061000806021F0EFFF4FF4E0114FF4803021F0C3
:10062000C3FF012021F0CCFF00BF392021F077FF6C
:100630000028FAD0022021F0C6FF00BF21F0CCFF35
:100640000828FBD101E000BFFEE710BD10B5FFF7A1
:10065000C3FFFFF7ADFF10BD10B5002000F05CFF39
:100660000121080222F079F8012000F055FF10BDA9
:1006700010B5FFF7F1FF10BD10B5002021F0DAFF33
:100680000121C80522F083F810BD03204749086006
:1006900070474748817A19B10521444A116002E048
:1006A0000121424A1160704708B54FF4C06020F044
:1006B00037FD14208DF8000001208DF801008DF821
:1006C00002008DF80300684620F02FFD13208DF8FE
:1006D000000001208DF8010000208DF802000120AB
:1006E0008DF80300684620F020FD31208DF80000D1
:1006F00000208DF801008DF80200684620F015FDFD
:1007000008BD10B5002023F035FB012023F032FB9B
:10071000022023F02FFB032023F02CFB10BD10B58B
:10072000022023F041FB10BD10B5022023F044FB52
:1007300010BD10B5002023F037FB10BD10B5002010
:1007400023F03AFB10BD10B504462CB14FF4005114
:10075000144821F002FE04E04FF40051114821F04A
:10076000FAFD10BD10B5134B18681B1D19681B1D31
:100770001A68A8B1104CA070030A2371030CA3716E
:10078000030E2372A1720B0A23730B0CA3730B0EBF
:100790002374A274130A2375130CA375130E237606
:1007A00010BD0000001001400000002018020020D1
:1007B000E4AF0020E8F7FF1F2C0100200CB500215A
:1007C00001910BE00021009102E00099491C009189
:1007D00000990529F9D30199491C01910199814298
:1007E000F0D30CBD0CB5002101910DE0002100916A
:1007F00002E00099491C009141F28832009991422F
:10080000F7D30199491C019101998142EED30CBDA6
:10081000F748007880F00100F5490870704730B55E
:10082000039C017042608360C46085684561002557
:10083000056130BD2DE9F84F0446894690461F46B4
:10084000207801284ED1A06870B96B4642464946CF
:10085000606806F046F918B900983860012640E053
:100860000020386000263CE04546CA462DE020695D
:10087000D8B12069A8420CD92A465046616923F0B4
:1008800069FB6069284460612069401B2061002584
:100890001BE05046D4E9042123F05CFB206982442C
:1008A00020692D1A002020610FE06B46201D07C82B
:1008B00006F017F938B9009800B908E000982061EF
:1008C000A068606101E0002601E0002DCFD100BFEB
:1008D0001DB9C7F80080012602E00020386000261C
:1008E00000BF05E02078022801D1002600E00026A4
:1008F0003046BDE8F88F2DE9FF4FADF28C4D8846AC
:1009000091460020A290A1908246A090B94908602B
:100910004FF4007007ABB84A0121009088A8FFF798
:100920007EFFBAF1000F0BD10122B348DDF88C1421
:1009300006F021F820B90120A090B04908700DE020
:10094000AFA1B548DDF88C2423F0D8FD4FF0010AA3
:100950000120A84908600020A8490870BAF1000FDA
:100960003DD187AB0E2296A988A8FFF763FF012827
:1009700002D04FF0010A32E087980E2802D04FF0E3
:10098000010A2CE09DF85802422822D19DF8590214
:100990004D281ED196A84079010696A8007941EA13
:1009A000004196A8C07841EA00209DF85A120843F9
:1009B000A19096A8407B010696A8007B41EA0041E1
:1009C00096A8C07A41EA00209DF8621208439590EB
:1009D00005E04FF6FF7007F0B8FE4FF0010ABAF1DC
:1009E000000F70D187AB282296A988A8FFF722FFB5
:1009F000012802D04FF0010A65E08798282802D02C
:100A00004FF0010A5FE096A8C079010696A88079A8
:100A100041EA004196A8407941EA00209DF85C1225
:100A200040EA010596A8C07A010696A8807A41EAB4
:100A3000004196A8407A41EA00209DF8601240EA01
:100A4000010B9DF8661296A8C07B41EA00269DF82E
:100A50007B0201069DF87A0241EA00419DF8790285
:100A600041EA00209DF8781208439190082E12DB8D
:100A7000F01DC11700EB5171C9106943C91C21F069
:100A800003010691C11700EB5171CA10069905FBCD
:100A90001211929111E0012E0CD1E81D032101EBFE
:100AA000D00020F003000690E91D0698A0EBD100CD
:100AB000929002E00695002092900699959801FB8D
:100AC0000B00059000BFBAF1000F32D1082E03D100
:100AD000919808B9700191909198B0F5807F28D8CD
:100AE0000020A2901EE087AB042296A988A8FFF7F9
:100AF000A1FE012802D04FF0010A10E09DF8580233
:100B000090909DF859028F909DF85A028E908EA871
:100B100007C800F0CCFCA3AAA29922F81100A29861
:100B2000401CA2909199A298884202D2BAF1000F7B
:100B3000D9D0BAF1000F1FD1959836380422919977
:100B400002FB1100009000208790009898B1009857
:100B5000282810D287AB96A988A8009AFFF76AFECA
:100B6000012806D187990098814204D04FF0010AEC
:100B700001E04FF0010A00BFBAF1000F54D10AF0B2
:100B8000E9F9A8421DD30AF0E8F9584519D30AF04B
:100B9000E6F918B10AF0E3F9012803D101200AF0BF
:100BA000CFF902E003200AF0CBF90AF0D3F9401B99
:100BB000400894900AF0D1F9A0EB0B004008939004
:100BC00032E00AF0CAF9A84228D30AF0C3F958451E
:100BD00024D30AF0C4F918B10AF0C1F9012803D1ED
:100BE00003200AF0ADF91FE001200AF0A9F91BE08B
:100BF0000D0000205C0A00209C1400200C00002046
:100C0000665F6F70656E206661696C656420666FF3
:100C1000722025730D0A0000C01C00204FF6FF70E3
:100C200007F093FD4FF0010ADDF8980418B94FF66C
:100C3000FF7007F08AFDDDF89804012802D100203A
:100C400007F083FDBAF1000F7DD10AF083F9401B54
:100C5000400894900AF081F9A0EB0B0040089390B3
:100C60000021084607F00EFE5C46B6E004EB0901E1
:100C7000404607F007FE0027A1E09198F0BB102E38
:100C800012D187AB022296A988A8FFF7D3FD9DF861
:100C900058329DF859C243EA0C2204EB090107EBD4
:100CA000080007F08DF889E0182E3CD187AB0322AD
:100CB00096A988A8FFF7BEFD9DF8580290909DF870
:100CC00059028F909DF85A028E908EA807C800F0A6
:100CD000EEFB0190DDF8980458B94FF6FF710198CA
:100CE000884206D004EB090107EB0800019A07F0DF
:100CF00067F8DDF8980401280AD100E014E00198B3
:100D000030B104EB090107EB0800019A07F058F82D
:100D1000DDF89804012851DD04EB090107EB080018
:100D2000019A07F04DF849E0082E19D187AB01224E
:100D300096A988A8FFF77EFD9DF8580204900498B4
:100D4000FF283BD800E04DE00DF5237C049B3CF8E8
:100D5000132004EB090107EB080007F031F82DE040
:100D6000012E2BD187AB012296A988A8FFF762FD3F
:100D70009DF858020390002002901BE0039800F0B9
:100D8000800038B104EB090107EB0800002207F0EE
:100D900017F807E004EB090107EB08004FF6FF72B4
:100DA00007F00EF803984006000E03900298401CCE
:100DB000C0B2029002980828E0DBFF1D7F1CAF4202
:100DC000FFF45BAF929828B187AB96A988A8929A56
:100DD000FFF730FD0AF0BEF8641E002C7FF446AF2A
:100DE0000AF0BBF8A09810B1FC4806F0FBF80DF231
:100DF0009C4DBDE8F08F2DE9F043ADF5137D044621
:100E00000027B8460026B1464FF4007002ABF34A03
:100E10000121009083A8FFF702FD47B90122214676
:100E2000EE4805F0A8FD10B94FF0010806E0224693
:100E3000AFF23421EA4823F061FB01271FBB0026F3
:100E40001DE082AB202289A983A8FFF7F3FC0546A9
:100E5000761C012D03D189A81EF050F904E0B6F5E7
:100E6000967F01DD42F20F7601200BF07EFDDD481A
:100E7000B0F8B891B9F1000F01D042F20F7642F20A
:100E80000F708642DDDBB8F1000F02D0D34806F0C8
:100E9000A9F80DF5137DBDE8F08370B504460D4645
:100EA00001222146CD4805F066FD08B9012070BD3C
:100EB0000020FCE72DE9F84304460E461746984605
:100EC000089D00200090032D1AD1C749C74823F080
:100ED00072F86946204606F085FD9DF80000C3497A
:100EE000C8749DF8010008759DF8020048759DF8CA
:100EF0000300887543463A463146BC48FFF7FBFC81
:100F0000002D7DD1B748B0F8AE0001282CD1B4F542
:100F1000966F03DAB449B54823F04DF8B4F5FA6F8B
:100F200003DBB349B14823F046F8B4F5AF6F06DBF5
:100F3000B4F5C86F03DAAF49AC4823F03CF840F28F
:100F40001450844206DBB4F5AF6F03DAAA49A74810
:100F500023F031F8B4F5C86F06DBB4F5E16F03DABE
:100F6000A649A24823F027F89E48B0F8AE0003280F
:100F70002CD1B4F5966F03DAA1499C4823F01BF8F5
:100F8000B4F5FA6F03DB9F49984823F014F8B4F5E1
:100F9000AF6F06DBB4F5C86F03DA9B49934823F0C3
:100FA0000AF840F21450844206DBB4F5AF6F03DA5E
:100FB00096498E4822F0FFFFB4F5C86F06DBB4F502
:100FC000E16F03DA9249894822F0F5FF8548B0F8CD
:100FD000AE0005282ED1B4F5966F03DA8D4983480B
:100FE00022F0E9FFB4F5FA6F03DB8B497F4822F06A
:100FF000E2FFB4F5AF6F08DBB4F5C86F05DA00E0C7
:10100000DEE08649794822F0D6FF40F2145084424F
:1010100006DBB4F5AF6F03DA8149744822F0CBFFE9
:10102000B4F5C86F06DBB4F5E16F03DA7D496F48AC
:1010300022F0C1FF6B48B0F8AE0004282CD1B4F503
:10104000966F03DA7849694822F0B5FFB4F5FA6F74
:1010500003DB7649654822F0AEFFB4F5AF6F06DBDF
:10106000B4F5C86F03DA7249604822F0A4FF40F279
:101070001450844206DBB4F5AF6F03DA6D495B4868
:1010800022F099FFB4F5C86F06DBB4F5E16F03DA1F
:101090006949564822F08FFF5248B0F8AE00022846
:1010A0002CD1B4F5966F03DA6449504822F083FFDF
:1010B000B4F5FA6F03DB62494C4822F07CFFB4F5CB
:1010C000AF6F06DBB4F5C86F03DA5E49474822F01C
:1010D00072FF40F21450844206DBB4F5AF6F03DABE
:1010E0005949424822F067FFB4F5C86F06DBB4F5F2
:1010F000E16F03DA55493D4822F05DFF694620461D
:1011000006F070FC9DF800003849C8749DF8010095
:1011100008759DF8020048759DF803008875012147
:101120003248FFF7BAFE012806D143463A46314617
:101130002E48FFF7E0FB43E0B4F5966F03DA44492D
:101140002A4822F038FFB4F5FA6F03DB41492748FB
:1011500022F031FFB4F5AF6F06DBB4F5C86F03DAE8
:101160003D49224822F027FF40F21450844206DB1A
:10117000B4F5AF6F03DA39491C4822F01CFFB4F50F
:10118000C86F06DBB4F5E16F03DA3549174822F082
:1011900012FF6946204606F025FC9DF80000134921
:1011A000C8749DF8010008759DF8020048759DF807
:1011B0000300887543463A4631460C48FFF79BFBCF
:1011C000012D7DD10748B0F8B20028B9054991F842
:1011D000B2001DF08CFF4EE044E000009C140020A3
:1011E000C01C0020ECA60020A047030868140020C3
:1011F00050460308F846030848480308F048030827
:10120000BC4703086C4603081447030864480308F6
:101210000C490308D84703088846030830470308E9
:101220008048030828490308F4470308A446030834
:101230004C4703089C480308444903081048030826
:10124000C046030868470308B84803086049030814
:101250008447030834460308DC4603082C48030887
:10126000D4480308984991F8B21001EB4101A53127
:10127000C8B21DF03CFF9448B0F8AE00012803D17D
:101280009249934822F097FE8F48B0F8AE000328A9
:1012900003D190498E4822F08EFE8B48B0F8AE0004
:1012A000052803D18C498A4822F085FE8648B0F88B
:1012B000AE00042803D18949854822F07CFE00E075
:1012C0001CE08148B0F8AE00022803D18449804870
:1012D00022F071FE6946204606F084FB9DF800006E
:1012E0007B49C8749DF8010008759DF80200487597
:1012F0009DF8030088750846FFF77DFD7948007862
:1013000010B10120BDE8F8830020FBE708B568466E
:10131000FEF766FF7449002005F01AFB08BD08B50A
:1013200000241FE000200BF020FB6748B0F8B80154
:10133000402802D1002C00DD641E6348B0F8B801DB
:10134000802800D1641C482C00DD00245E48B0F8E1
:10135000B80138B100200090A0B200231A46194607
:10136000FFF7A8FDDEE708B54FF48031C8021FF093
:101370000EFFFFF76BF90AF01EFD09F01AFF09F0E6
:10138000B2FF09F090FF0AF0FBFE04F0F5FA0AF054
:1013900074F96420FFF726FA00200BF0E6FA4FF408
:1013A0000041524820F0BDFF20B14748B0F8B801D5
:1013B000032822D140214E4820F0CDFF6420FFF7C2
:1013C00011FA0AF041FE06F006FC002007F0BDF914
:1013D00000204FF4784347A20146009007F0B8F888
:1013E000FFF74AF9FFF760F91EF0E2FC00BF45483D
:1013F00000680528FBD100BFFEE70AF04EF90AF0AD
:10140000A0F90AF020FB1DF024FC1DF04EFD1DF09C
:10141000DAFC0121080221F0A0F90AF015FE06F01D
:10142000DAFB002007F091F94FF47840002336A250
:1014300019460090184607F08BF8FFF767FF642005
:10144000FFF7D0F900200DF020FA0020012302461A
:10145000014600904FF4FA60FFF72CFD1DF0F3FAFF
:101460004FF47A70FFF7BEF900200BF07EFA1648B1
:10147000B0F8B801202801D1FFF751FF0120002367
:101480001A46194600904FF47A70FFF713FD642056
:10149000FFF7A8F90AE01F480068012804D11AF0F4
:1014A00079FD00201B4908601CF038FFF3E710B5F8
:1014B000034603F0F800000201F0FC0440EAC40017
:1014C00040EAD20010BD0000ECA6002098490308B5
:1014D00068140020B4490308D0490308EC49030804
:1014E000084A03080C000020380C0020000C0140C2
:1014F00000100140555342204469736B204D6F64C6
:10150000652E000018020020BDC3C0DB20535441EB
:10151000525420009C04002070B50446002514B1EC
:10152000012C36D131E001F0F3F8804908608048A1
:1015300001F01FF97D4908607D49B1F84C1008049D
:1015400001F040FC794908604FF4006001F0D3FBE2
:1015500076490860002001F016FC744908600846CE
:101560000068084600682A2807D14FF400727149C4
:10157000002001F073FC6D4908606C4800682A285F
:1015800002D16DA022F0AAFF05E000F0D0FA0546D6
:1015900001E0012070BD00BF2846FBE72DE9F041C6
:1015A00004460D4616461F4614B1012C15D10EE017
:1015B0003A463146284601F0E5FF5C490860084696
:1015C00000682A2802D00120BDE8F08107E03A46F1
:1015D0003146284600F0A0FB01E00120F4E700BFFF
:1015E0000020F1E72DE9F04104460D4616461F465E
:1015F00014B1012C15D10EE03A463146284601F0CF
:101600002DFC4A490860084600682A2802D00120BB
:10161000BDE8F08107E03A463146284600F0EDFC8F
:1016200001E00120F4E700BF0020F1E7F8B504462F
:1016300000250026002C60D101F06AF82A2872D11A
:101640003B4801F096F83A49B1F84C10080401F013
:10165000B9FB3748007E851C354890F84E000228BB
:1016600006D133480069401C80023E49086012E000
:101670002F490A7A012101FA02F0C11700EBD1517A
:101680004E122B480069401C0121A94048437108B3
:101690008840344908604FF4007033490860244999
:1016A000B1F84C10080401F08DFB204908604FF49C
:1016B000006001F020FB1D490860084600682A28E8
:1016C00001D00120F8BD002001F05DFB1749086042
:1016D000084600682A2801D00120F3E72148006865
:1016E000214909684843214908602148007810B918
:1016F00001201F4908700020E4E76846FEF770FDEE
:101700009DF8010070B14FF48030164948604011D7
:101710001549486013484068496848431349486080
:101720000020CFE7FFE70120CCE7000034000020D5
:10173000F41C0020441F00200D0A53442053444948
:101740004F2D34626974C4A3CABD20B2E2CAD45416
:1017500046BFA8B6C1D0B4B3C9B9A6A3A1200A2078
:1017600000000000200000201800002010000020D1
:101770003800002070B504460D46164674480078BF
:1017800070B9744850F82400684373490860714880
:1017900050F8240070437149086001206C490870BA
:1017A0006B480078012844D16D480068C0B9694889
:1017B00030F8240083B26B4A674801682046FFF77F
:1017C00011FF4022674981201FF0EEF8614850F870
:1017D000240040386249086040206349086011E0F5
:1017E0006048614A12688118402281201FF0DCF8AD
:1017F0005B48006840385A4908605B4800684030E0
:1018000059490860402101201EF0EFFE30210120DF
:101810001EF009FD5048006840304F4908604F48AD
:10182000006840384D4908605048806840384F494A
:1018300088604A48006860B90020494908604A4900
:101840000860454908600320494908700020404964
:10185000087070BD2DE9F04104460D461646454816
:10186000006800F140073A48007870B9394850F8EC
:101870002400684340490860364850F8240070430B
:101880003E4908600120324908703148007801283B
:101890004CD100203A49086010E0394801680068DE
:1018A000401C374A10603748415C2E48314A126864
:1018B000815430480068401C2E4908602D4800685B
:1018C000B842EAD32C4800682F49098808442A49BD
:1018D00008602A4800682C490988401A274908608E
:1018E0001C4850F824000968B1FBF0F200FB12100C
:1018F00080B900201F490860164830F8240083B2E0
:10190000144850F824001C4A1268111A154A20463F
:10191000FFF744FE154880681B490988401A13499F
:1019200088604FF4405102201EF09BFC1348006871
:1019300018B10F480078042808D100200D4908602C
:10194000012102F0F5FC002001490870BDE8F0819A
:101950004C000020180000205000002054000020FF
:101960003C0000204421002040000020083A0020D4
:101970002001002044000020580000205C000020CE
:1019800048000020A8390020220100200CB501F0F9
:101990003F02ADF80420C1F38F12ADF802200022FF
:1019A000ADF800200CE0BDF80220A2F5806292B2F2
:1019B000ADF80220BDF80020521C92B2ADF8002014
:1019C000BDF80220B2F5806FEDDA009A0260BDF832
:1019D000042082800CBD30B597B004460D462946E0
:1019E00001A8FFF7D3FFDDE90101CDE903010123E0
:1019F00005A8DDE90312FEF749FDDDE90501CDE9A2
:101A0000150115982060BDF85800A08017B030BDB2
:101A10002DE9FF410746002406E04FF48050F749C6
:101A200021F81400601C84B2B4F5806FF5DB40F23D
:101A3000FF3600244CE0A20102EB07416846FFF7A5
:101A4000CAFFDDE90001CDE90201BDF80A0010B1CD
:101A5000BDF80C00D0B93146721E96B2E74A02EBCF
:101A60004100018844F4005211430180E34830F8FA
:101A700014004EF6FF710840E04921F81400B6F555
:101A80007A7F23D1012004B0BDE8F081BDF80800C1
:101A90004FF6FF71884219D0BDF80800C0F3090065
:101AA000D64931F8100044F440410843BDF808100D
:101AB000C1F30901D14A22F81100104630F8140090
:101AC0004EF6FF710840114621F81400601C84B2E4
:101AD000B4F5806FAFDB0025002423E0C74830F861
:101AE000140000F40040D8B900BFC44830F8150015
:101AF00000F4805070B1C14830F814002843BF4949
:101B000021F81400084630F8150020F4805021F820
:101B1000150004E0681C85B2B5F5806FE5DB00BFF9
:101B2000601C84B2B4F5806FD8DB0020ABE710B541
:101B30000024FEF707FB0020FFF76AFF04460020A1
:101B4000AF490870204610BD10B504462046FFF787
:101B50005FFF002010BD1FB5ADF5006DDDF8184822
:101B600017E0012368460DF5006106C9FEF7E5FBA5
:101B7000012368460DF6080106C9FEF787FB0DF53F
:101B80000060FEF73EFB0DF60800FEF73AFB601E14
:101B900084B2002CE5DC00200DF5016D10BD10B500
:101BA00096B09848007800286AD197480088D8B144
:101BB0009648848800209549888095498880924875
:101BC000008800900846016804918088ADF81400F0
:101BD0008E48016802918088ADF80C0002A80FC8F9
:101BE000FFF7B9FF8948848088488088401CC0F18D
:101BF0004000E0B18548FEF704FB844880888449B2
:101C0000888082488088C0F1400080B200900846F9
:101C1000016804918088ADF814007C480168029145
:101C20008088ADF80C0002A80FC8FFF794FF794830
:101C3000008840F40040ADF818004FF6FF70ADF892
:101C40001A00ADF81C000020714988800846016820
:101C500004918088ADF81400012306A8059AFEF7C8
:101C6000BDFB6A48016804918088ADF81400DDE985
:101C70000401FEF75DFC65490878FFF765FF1DE08C
:101C80006448008840F40040ADF818004FF6FF703B
:101C9000ADF81A00ADF81C0000205C4988800846A9
:101CA000016804918088ADF81400012306A8059A04
:101CB000FEF794FB55490878FFF746FF002016B061
:101CC00010BD4E48B0F8D00720F4404070470CB526
:101CD00001F03F02ADF80420C1F38F12ADF80220ED
:101CE0000022ADF800200CE0BDF80220A2F57A72C7
:101CF00092B2ADF80220BDF80020521C92B2ADF8AD
:101D00000020BDF80220B2F57A7FEDDA009A026079
:101D1000BDF8042082800CBD2DE9FC4105460E462D
:101D20001446E90A6846FFF7D2FF38480099016077
:101D3000BDF804108180008837490988884206D0A0
:101D400032480088344908800878FFF761FE2F4840
:101D500040882A4931F81000304908802B484088D3
:101D60002C4908802648007800287DD12B4800881F
:101D700000F40040002855D0002022490870FFF7E9
:101D8000A0FF234948802148008808801F48808898
:101D900088801D4908802746E01704EB5050C31285
:101DA0001B48016800918088ADF804003046019A14
:101DB000FEF76CFA1A480088401C19490880174839
:101DC0000088C0F30900114948801548008801289F
:101DD00006D1FFF7E4FE002011490880BDE8FC8130
:101DE0000A4880883F2803D1FFF7D9FE0020F5E795
:101DF0000420034908700020F0E700004429002077
:101E000060000020610000207200002062000020BD
:101E10006800002070000020740000206E00002088
:101E2000760000200120C5490870C5480088C0F32D
:101E30000900C44948802746E01704EB5050C312FC
:101E40000846016800918088ADF804003046019A88
:101E5000FEF71CFABC480088401CBB4908800846B5
:101E60000088012807D100E00AE000200880FFF781
:101E700096FE0020B2E70420B44908700020ADE7C8
:101E8000B2480078042856D1AD48008800F40040DC
:101E9000002851D0AA480088C0F30900A949488009
:101EA0000020A6490870A7488088A9498880A548CD
:101EB00080883F281FD12746E01704EB5050C312FB
:101EC0000846016800918088ADF804003046019A08
:101ED000FEF7DCF99C480088401C9B4908800846B6
:101EE0000088012801D100200880FFF758FE00205B
:101EF0009649087072E72746E01704EB5050C3126A
:101F00009348016800918088ADF804003046019A3A
:101F1000FEF7BCF98C480088401C8B4908800846B5
:101F20000088012852D1002088490870FFF737FE49
:101F300000208549088049E081480088C0F30900F5
:101F400080494880084680883F281FD12746E017EF
:101F500004EB5050C3120846016800918088ADF828
:101F600004003046019AFEF791F977480088401C3A
:101F70007549088008460088012801D100200880A2
:101F8000FFF70DFE00207149087027E72746E0178C
:101F900004EB5050C3126B48016800918088ADF883
:101FA00004003046019AFEF771F967480088401C2A
:101FB0006549088008460088012807D10020634948
:101FC0000870FFF7ECFD00205F490880002005E75E
:101FD0002DE9F04105460E461746002409E0EA02C5
:101FE00002EBC42006EBC4214FF40062FFF794FE1D
:101FF000641CBC42F3D3BDE8F0812DE9FF410546E6
:102000000E461446E90A6846FFF761FEDDE9000165
:10201000CDE90201BDF808004E490988884206D082
:10202000BDF808004B4908800878FFF7F1FCBDF8BF
:102030000A00494931F8100000F4005018B101209D
:1020400004B0BDE8F081BDF80A00434931F8100042
:1020500020F44040ADF80A002746E01704EB50504A
:10206000C3123046DDE90212FEF767F90020E7E708
:102070002DE9F04FADF6040D05460E4617464FF01C
:10208000000B002427E0E80200EBC4204FEAD02830
:10209000E80200EBC420C0F30A094FEAC8204FF45D
:1020A00000626946FFF7A9FF0020CDF800088246CC
:1020B0000DE0DDF80008411C4844CDF800181DF87B
:1020C000002058460BF1010B32540AF1010ABAF50F
:1020D000006FEED3641CBC42D5D30DF6040DBDE8F1
:1020E000F08F10B586B000241AE0A1016846FFF712
:1020F0004DFCDDE90001CDE90401A1016846FFF7CF
:102100006AFCDDE90001CDE90201BDF80A0010B961
:10211000BDF80C0018B1DDE90401FEF709FA641CF2
:10212000B4F5806FE1D30020FFF772FC002006B009
:1021300010BD10B50020FFF76BFC10BD6100002042
:102140006E00002062000020760000206000002069
:1021500068000020740000204429002070B52A2562
:10216000FE48446B01E0FD48446B04F04500002844
:10217000F9D004F0040028B10325042020F02DFC40
:10218000284670BD04F0010028B10125012020F08F
:1021900024FC2846F5E740F2FF5020F01EFC2846BC
:1021A000EFE72DE9F04106460F464FF02A08EB48CD
:1021B000456B01E0E948456B05F045000028F9D082
:1021C00005F0040038B14FF00308042020F005FCAE
:1021D0004046BDE8F08105F0010030B14FF0010844
:1021E000012020F0FAFB4046F3E720F08FFBB042DD
:1021F00003D04FF010084046EBE740F2FF5020F0CC
:10220000ECFB002020F086FB044604F4604018B983
:10221000200C38804046DCE704F4005008B113205D
:10222000D7E704F4804008B11020D2E704F400405E
:1022300008B10F20CDE74046CBE738B52A2401206E
:10224000009020F034FB10B92524204638BDC44846
:102250000068042829D00020C24908600220486094
:10226000C02088600020C8604FF480600861084684
:1022700020F032FBFFF772FF04462A2C01D02046E3
:10228000E4E7002020F046FBB7490860042020F076
:1022900041FBB5494860082020F03CFBB24988600A
:1022A0000C2020F037FBB049C860AD48006858B139
:1022B000AB480068012807D0A9480068062803D069
:1022C000A7480068022817D10020A649086003200B
:1022D0004860402088600020C8604FF4806008613A
:1022E000084620F0F9FA69460320FFF75AFF044632
:1022F0002A2C01D02046A9E79948006804282FD04D
:10230000BDF8000099490860BDF800000004954937
:10231000086009204860C02088600020C8604FF431
:1023200080600861084620F0D7FAFFF717FF0446DF
:102330002A2C01D0204689E7002020F0EBFA8C49B6
:102340000860042020F0E6FA89494860082020F05F
:10235000E1FA874988600C2020F0DCFA8449C860E3
:102360002A24204672E770B52A257C48446B01E098
:102370007A48446B04F045000028F9D004F00400CA
:1023800028B10325042020F028FB284670BD40F228
:10239000FF5020F022FB2846F8E72DE9F0410646E1
:1023A0002A276E48456B01E06C48456B05F04500F7
:1023B0000028F9D005F0040030B10327042020F0F4
:1023C0000CFB3846BDE8F08105F0010028B101277B
:1023D000012020F002FB3846F4E720F097FAB042E3
:1023E00002D010273846EDE740F2FF5020F0F5FA12
:1023F000002020F08FFA04465E48204008B9384695
:10240000E0E704F0004008B11C20DBE704F0804066
:1024100008B10920D6E704F0005008B10A20D1E73E
:1024200004F0805008B10B20CCE704F0006008B144
:102430000C20C7E704F0806008B10D20C2E704F06B
:10244000807008B10E20BDE704F4000008B10F2031
:10245000B8E704F4800008B11020B3E704F40010DA
:1024600008B11120AEE704F4801008B11220A9E7EA
:1024700004F4002008B11320A4E704F4802008B17C
:1024800014209FE704F4003008B115209AE704F403
:10249000803008B1162095E704F4004008B11720F9
:1024A00090E704F4804008B118208BE704F4005052
:1024B00008B1192086E704F0080008B11A2081E766
:1024C00038467FE770B52A2642F210752348446BE0
:1024D00002E06D1E2148446B04F0450008B9002D50
:1024E000F7D115B104F0040028B10326042020F030
:1024F00074FA304670BD04F0400028B12A2640200E
:1025000020F06BFA3046F5E73046F3E770B52A2540
:1025100042F2107400E0641E24B1802020F053FACF
:102520000028F8D014B90325284670BD40F2FF50AA
:1025300020F053FA2846F8E72DE9F0412A24002636
:10254000002500274FF00008B2200B490875002035
:10255000086048608860C86008610FE00080014042
:10256000F80000207C39002054390020FC000020B5
:102570004439002008E0FFFD64390020084620F0BF
:102580006BF9032020F088F9012020F082F9002067
:10259000FE49086048608860C8604FF48060086148
:1025A000084620F099F9FFF7B1FF04462A2C02D023
:1025B0002046BDE8F0814FF4D570F449086008204A
:1025C0004860402088600020C8604FF48060086147
:1025D000084620F081F9FFF775FF04462A2C05D143
:1025E0000120EB4908604FF0804812E00020E749E5
:1025F000086037204860402088600020C8604FF4A1
:1026000080600861084620F067F93720FFF7C5FEB3
:1026100004460020DD49086037204860402088607B
:102620000020C8604FF480600861084620F054F92B
:102630003720FFF7B2FE04462A2C4CD138E00020A8
:10264000D249086037204860402088600020C86078
:102650004FF480600861084620F03EF93720FFF70C
:102660009CFE04462A2C01D02046A2E7C94848EA2D
:102670000000C6490860292048604020886000208A
:10268000C8604FF480600861084620F025F9FFF724
:102690006AFE04462A2C01D020468AE7002020F05A
:1026A00039F90646012080EAD67080F001076D1CDA
:1026B0001FB94FF6FF708542C1D34FF6FF708542B8
:1026C00002D31B24204674E706F08040061E02D089
:1026D0000220AF49086020466BE708B50121302091
:1026E00020F048F84FF4F850ADF8000003208DF8C2
:1026F000020018208DF803006946A7481FF07EFDF0
:102700000420ADF800006946A4481FF077FD08BD1D
:1027100010B52A24FFF7E1FF0121880220F01DF8FF
:102720000121022020F019F820F088F8FFF704FFBB
:1027300004462A2C01D0204610BDFFF77EFD04463A
:102740002A2C01D02046F7E7012095490875002082
:10275000086048608860C8600861084620F07CF81E
:102760002046E9E710B52A24002020F095F82046FD
:1027700010BD30B501462A200022854B1B7881F818
:102780004E30884B1B88A1F84C30874B1B681A0EC3
:1027900093090B70C2F383034B7002F003038B7039
:1027A000814B1B68C3F30742CA707F4B1B88C3F37E
:1027B00007220A717C4B1A784A715B681A0E130162
:1027C000CB80794B5B68C3F30742CB8843EA121393
:1027D000CB8002F00F030B72734B9B88C3F307226D
:1027E000D3094B72C2F380138B72C2F34013CB72C6
:1027F000C2F300130B7300234B73654B1B681BB1B3
:10280000634B1B68012B3CD193071B0D0B61664B7F
:102810001A790B6943EA82030B61634B9B681A0EBA
:102820000B6943EA92130B61C2F3C2030B7502F00A
:1028300007034B755C4B9B68C3F3074253098B75C9
:10284000C2F38203CB7593075B0F0B76564B1B8944
:10285000C3F307220B7E43EAD2130B760B695B1C92
:102860004B640C7E4B6CA41C0125A5406B434B6450
:102870000C7A0123A3408B64D1E9113463434B6488
:1028800021E0434B1B68022B1DD1474B1A7993065D
:102890009B0A0B61444B9B681A0E0B6943EA0223A7
:1028A0000B61414B9B68C3F307420B6913430B61F8
:1028B0003D4B1B89C3F307220B695B1CDB044B6494
:1028C0004FF400738B64C2F3801301F8193F930631
:1028D0005B0E4B70344B1A7A4B7843EAD2134B7031
:1028E00002F07F038B70304BDB681A0ED309CB707C
:1028F000C2F341130B71C2F382034B7193071B0F99
:102900008B71294BDB68C3F307428B7943EA92133F
:102910008B71C2F34013CB7100230B7202F00103E1
:102920004B72214B9B89C3F30722D3098B72C2F3ED
:102930008013CB72C2F340130B73C2F300134B73BB
:10294000C2F381038B7302F00303CB73164B1A7B24
:1029500053080B7401234B74144B1B681A0ECA7472
:102960001939124B1B68C3F307421402CC850F4B75
:102970001B88C3F30722CB8D1343CB850B4B1A78EF
:1029800014060C635B681A0E0B6B11E07C39002097
:10299000F8000020000010800010014000140140E9
:1029A00064390020FC000020443900205439002004
:1029B00043EA02440C63F94B5B68C3F307420B6BB9
:1029C00043EA02240C63F54B9B88C3F307220B6B8D
:1029D00013430B63F14B1A7934235A54EF4B9B6822
:1029E0001A0E35235A54ED4B9B68C3F30742140665
:1029F0008C63EA4B1B89C3F307228B6B43EA0244C7
:102A00008C63E64B1A7A8B6B43EA02248C63E34BAC
:102A1000DB681A0E8B6B13438B63E04BDB68C3F3ED
:102A200007423C235B5C43EA12143C235C541307CB
:102A30001C0DCC87D94B9B89C3F30722CB8F134343
:102A4000CB87D64B1A7B540840235C540124412386
:102A50005C5430BD2DE9FC4107460D4600262A2472
:102A60000020009001900820CD49086010204860A7
:102A7000402088600020C8604FF4806008610846EC
:102A80001FF02AFF1020FFF788FC04462A2C02D0F2
:102A90002046BDE8FC81C34800880004C0490860A6
:102AA00037204860402088600020C8604FF4806074
:102AB000086108461FF010FF3720FFF76EFC044640
:102AC0002A2C01D02046E4E7B748B849086008201E
:102AD0004860302088600220C86000200861012022
:102AE000486108461FF021FF0020AD4908603320EF
:102AF0004860402088600020C8604FF48060086112
:102B000008461FF0E9FE3320FFF747FC04462A2C55
:102B100001D02046BDE709E04FF400101FF053FF3D
:102B200020B11FF024FF4DF82600761CA048406B12
:102B300040F22A6108400028EED008201FF043FF31
:102B400028B108201FF049FF04242046A1E70220F5
:102B50001FF039FF28B102201FF03FFF022420465A
:102B600097E720201FF02FFF28B120201FF035FF0E
:102B7000062420468DE74FF400701FF024FF30B18B
:102B80004FF400701FF029FF0724204681E740F230
:102B9000FF501FF022FF00980006009901F47F41CA
:102BA00040EA0120009901F47F0140EA11200099D8
:102BB00040EA1160686001980006019901F47F41C4
:102BC00040EA0120019901F47F0140EA11200199B6
:102BD00040EA1160286020465BE77CB505462A2460
:102BE0000020009001901FF095FE00F0007010B1E1
:102BF0000E2420467CBD6B49098888B26946FFF7E0
:102C000029FF04462A2C01D02046F3E7012D38D1B4
:102C1000019800F48020002830D062480088000429
:102C20005F49086037204860402088600020C86005
:102C3000A802086108461FF04FFE3720FFF7ADFBE2
:102C400004462A2C01D02046D4E7022054490860CB
:102C500006204860402088600020C8604FF48060F3
:102C6000086108461FF038FE0620FFF796FB044671
:102C70002A2C01D02046BDE72046BBE7252420466C
:102C8000B8E7019800F4803078B346480088000423
:102C90004349086037204860402088600020C860B1
:102CA0004FF48060086108461FF016FE3720FFF7DA
:102CB00074FB04462A2C01D020469BE700203849AB
:102CC000086006204860402088600020C8604FF4FB
:102CD0008060086108461FF0FFFD0620FFF75DFBDE
:102CE00004462A2C02D0204684E701E0204681E7F2
:102CF000252420467EE770B504462A252D48006825
:102D0000032802D12725284670BD2A48006838B11B
:102D100028480068012803D026480068022830D1DE
:102D2000B4F5805F02D127252846EDE7B4F5006FA2
:102D300015D10120FFF751FF05462A2D21D1012091
:102D40001D49087500200860486088604FF40060E5
:102D5000C8600020086108461FF07EFD11E00020D9
:102D6000FFF73BFF05462A2D0BD1012012490875BC
:102D70000020086048608860C860086108461FF04D
:102D80006BFD2846C0E701462A2019B1012901D070
:102D9000022915D1094A116013E0000054390020BE
:102DA0007C390020FC000020FFFF0F00903900203C
:102DB00000800140F800002064390020000100205C
:102DC0002620704770B504462A25FE480460072077
:102DD000FC494860402088600020C8604FF4806053
:102DE000086108461FF078FD0720FFF7D6FA054670
:102DF000284670BD30B58BB005460C46F2481EF033
:102E0000F5FA0021F1481EF0C5FAF148009001954D
:102E100000200290A00803900020049080200590DC
:102E20008000069080000790002008904FF400502A
:102E3000099000200A906946E4481EF080FA0121BA
:102E4000E2481EF0A7FA0BB030BD0146002002E0B8
:102E50004910421CD0B20129FAD170472DE9F04740
:102E600007460D4614464FF02A084FF000092E463B
:102E70004FF0000A25B94FF026084046BDE8F0871C
:102E80002A20D44908700020D3490860D34908603B
:102E9000D348D4490860002048608860C860086151
:102EA000486108461FF041FD00201FF012FD002080
:102EB0001FF030FD00F0007018B14FF00E084046D2
:102EC000DCE7C9480068022801D104027F0A002C0F
:102ED00021DDB4F5006F1EDC601E2040D8B920460D
:102EE000FFF7B3FF8246B74804601020B549486039
:102EF000402088600020C8604FF480600861084668
:102F00001FF0EAFC1020FFF748FA8046B8F12A0FBC
:102F100005D04046B2E74FF026084046AEE7B0483D
:102F2000B0490860084644604FEA0A1088600220F1
:102F3000C860002008610120486108461FF0F5FCC8
:102F4000A64804600020A9490860A94805609D487A
:102F5000076011209B494860402088600020C860BD
:102F60004FF48060086108461FF0B6FC1120FFF79F
:102F700014FA8046B8F12A0F01D040467EE79D48FA
:102F80000068022858D111E04FF400401FF01BFDEB
:102F900060B14FF0000905E01FF0E9FC46F8290098
:102FA00009F10109B9F1080FF6D3203688488038B5
:102FB000406B40F22A6108400028E5D008201FF04D
:102FC00002FD30B108201FF008FD4FF00408404614
:102FD00054E702201FF0F7FC30B102201FF0FDFC87
:102FE0004FF00208404649E720201FF0ECFC30B1CA
:102FF00020201FF0F2FC4FF0060840463EE74FF459
:1030000000701FF0E0FC38B14FF400701FF0E5FCD9
:103010004FF00708404631E703E01FF0A8FC30609E
:10302000361D4FF400101FF0CEFC0028F5D140F201
:10303000FF501FF0D2FC2CE06E480068012813D12D
:10304000012148F22A301FF037FC00BF62480068B7
:1030500018B9604800782A28F8D05E4800782A28F5
:1030600017D05C48007809E76248006888B90121F8
:1030700040F22A301FF020FC01201FF02AFC2146DC
:103080002846FFF7B7FE00BF5B481EF09BF90028FB
:10309000FAD04046F2E62DE9F05F81460E4614462E
:1030A0001D464FF02A084FF0000A37464FF0000B3C
:1030B00026B94FF026084046BDE8F09F2A20454932
:1030C0000870002044490860444908604448454964
:1030D0000860002048608860C86008614861084650
:1030E0001FF023FC00201FF0F4FB00201FF012FC57
:1030F00000F0007018B14FF00E084046DCE73A4887
:103100000068022802D104024FEA5929002C21DD6F
:10311000B4F5006F1EDC601E2040D8B92046FFF7D2
:1031200094FE8346274804601020264948604020CA
:1031300088600020C8604FF48060086108461FF076
:10314000CBFB1020FFF729F98046B8F12A0F05D0F4
:103150004046B1E74FF026084046ADE7012D7DD946
:1031600005FB04F0B0F1007F03D34FF02608404682
:10317000A2E705FB04F01949086001201B4908601B
:103180001B48066016481749086005FB04F04860B4
:103190004FEA0B1088600220C860002008610120FF
:1031A000486108461FF0C1FB0648C0F80090122095
:1031B00004494860402088600020C8604FF4806067
:1031C00008611BE07C39002000F00010440402403C
:1031D000808001401401002018010020040100201B
:1031E000FFFF0F0090390020F800002008010020A8
:1031F00010010020000100200020001008461FF0F0
:103200006BFB1220FFF7C9F88046B8F12A0F01D0F6
:10321000404651E7FE48006802287CD111E04FF497
:1032200000401FF0D0FB60B14FF0000A05E01FF036
:103230009EFB47F82A000AF1010ABAF1080FF6D3FB
:103240002037F448406B40F22A3108400028E6D08D
:1032500008201FF0B8FB40B1082000E09EE01FF0FE
:10326000BCFB4FF00408404626E702201FF0ABFBF2
:1032700030B102201FF0B1FB4FF0020840461BE7BF
:1032800020201FF0A0FB30B120201FF0A6FB4FF044
:103290000608404610E74FF400701FF094FB38B169
:1032A0004FF400701FF099FB4FF00708404603E70A
:1032B00003E01FF05CFB38603F1D4FF400101FF06F
:1032C00082FB0028F5D14FF480701FF07CFB18B30F
:1032D000D148006838B1D0480068022803D0CE48F1
:1032E0000068012818D10020CC4908600C204860F3
:1032F000402088600020C8604FF480600861084664
:103300001FF0EAFA0C20FFF748F88046B8F12A0FC0
:1033100002D04046D0E604E040F2FF501FF05DFBD3
:103320003CE0BB480068012813D1012148F22A3053
:103330001FF0C2FA00BFBA48006818B9B94800784F
:103340002A28F8D0B74800782A2827D0B54800782E
:10335000B2E6AF48006808BB012140F22A301FF0F6
:10336000ABFA01201FF0B5FA05FB04F13046FFF778
:1033700041FD00BFAC481EF025F80028FAD000BF80
:10338000A748006818B9A74800782A28F8D0A548A7
:1033900000782A2802D0A34800788DE640468BE6C4
:1033A0007CB504462A250020019000909F480088A3
:1033B00000049A4908600D20486040208860002081
:1033C000C8604FF48060086108461FF085FA914894
:1033D000406B009002E08F48406B0090009800F036
:1033E00045000028F7D0009800F0040028B103251C
:1033F00004201FF0F2FA28467CBD009800F001007E
:1034000028B1012501201FF0E8FA2846F4E71FF053
:103410007DFA009000980D2802D010252846EBE791
:1034200040F2FF501FF0D9FA00201FF073FA01900C
:103430000198C0F3432020707D490198084008B9E5
:103440002846D9E7019800F0004008B11C20D3E7D6
:10345000019800F0804008B10920CDE7019800F004
:10346000005008B10A20C7E7019800F0805008B169
:103470000B20C1E7019800F0006008B10C20BBE709
:10348000019800F0806008B10D20B5E7019800F0C8
:10349000807008B10E20AFE7019800F4000008B179
:1034A0000F20A9E7019800F4800008B11020A3E7DD
:1034B000019800F4001008B111209DE7019800F474
:1034C000801008B1122097E7019800F4002008B19D
:1034D000132091E7019800F4802008B114208BE7B5
:1034E000019800F4003008B1152085E7019800F438
:1034F000803008B116207FE7019800F4004008B141
:10350000172079E7019800F4804008B1182073E78C
:10351000019800F4005008B119206DE7019800F0FF
:10352000080008B11A2067E7284665E730B58BB078
:1035300005460C463F481DF059FF00213E481DF04E
:1035400029FF344880300090019510200290A00897
:103550000390002004908020059080000690800059
:103560000790002008904FF40050099000200A9026
:10357000694631481DF0E3FE01212F481DF00AFF86
:103580000BB030BD2DE9FF5F82460F4614462A2559
:103590000020039002908346002601908046009010
:1035A000B94627B92625284604B0BDE8F09F2A2051
:1035B0001C49087000201A4908602049086020480A
:1035C00020490860002048608860C8600861486140
:1035D00008461FF0AAF900201FF07BF900201FF019
:1035E00099F900F0007010B10E252846DCE70A4872
:1035F0000068022802D104024FEA5A2A002C3EDD5C
:10360000B4F5006F3BDC601E2040B8BB20461BE0D9
:103610000001002000800140F80000207C390020DB
:10362000180100201401002000200010FC000020E0
:1036300008E0FFFD00F000104404024004010020F7
:10364000FFFF0F0090390020FFF7FFFB0390FE48BB
:1036500004601020FC494860402088600020C86059
:103660004FF48060086108461FF036F91020FEF71D
:1036700094FE05462A2D05D0284695E7FFE7262526
:10368000284691E7F14800880004EF4908600D20C2
:103690004860402088600020C8604FF48060086166
:1036A00008461FF019F90D20FEF777FE05462A2D72
:1036B00001D0284678E700201FF02CF90190DFF8B0
:1036C00090B31EE0ABF1010BE04800880004DE4936
:1036D00008600D204860402088600020C8604FF4DA
:1036E0008060086108461FF0F7F80D20FEF755FED0
:1036F00005462A2D01D0284656E700201FF00AF97A
:103700000190019800F4807010B9BBF1000FD9D17D
:10371000BBF1000F01D1292046E7CB48C0F800A03B
:103720001820C9494860402088600020C8604FF4D4
:103730008060086108461FF0CFF81820FEF72DFEC4
:1037400005462A2D01D028462EE7C24804600020F5
:10375000C1490860C1480760BD48C14908600846C2
:1037600044600398000188600020C860086101205F
:10377000486108461FF0D9F8BA48006802286BD1A2
:1037800039E04FF480401FF01EF9A0B3B148006843
:10379000801B202820D2AF480078801B00F0030057
:1037A00020B9AC480068801B800804E0A948006884
:1037B000801B8008401C00904FF0000808E0D9F8FA
:1037C00000001FF0D8F808F1010809F10409361DBE
:1037D000009880450FD2F2E74FF0000805E059F855
:1037E00028001FF0C8F808F10108B8F1080FF6D357
:1037F00009F1200920369C48406B40F21A610840CC
:103800000028BED008201FF0DEF828B108201FF0E5
:10381000E4F804252846C7E602201FF0D4F828B1B2
:1038200002201FF0DAF802252846BDE610201FF01E
:10383000CAF828B110201FF0D0F805252846B3E6B5
:103840004FF400701FF0BFF8F0B34FF400701FF09A
:10385000C4F807252846A7E682480068012813D146
:10386000012144F21A301FF027F800BF7F4800689A
:1038700018B97F4800782A28F8D07D4800782A288F
:1038800028D07B4800788FE676480068E0B90121AF
:1038900040F21A301FF010F821463846FFF746FE76
:1038A00001201FF016F800BF72481DF08BFD0028A4
:1038B000FAD000BF6D48006818B96D4800782A2812
:1038C000F8D06B48007800E004E02A2802D068486D
:1038D000007869E640F2FF501FF07FF802A8FFF77A
:1038E0005FFD054603E002A8FFF75AFD05462A2DB5
:1038F00007D19DF808000728F5D09DF80800062894
:10390000F1D0284650E62DE9FE4F834688461446FE
:103910001E462A2500200290019000278146009033
:10392000C246B8F1000F03D126252846BDE8FE8F18
:103930002A204F49087000204C490860454908601A
:10394000434847490860002048608860C8600861B3
:10395000486108461EF0E9FF00201EF0BAFF002073
:103960001EF0D8FF00F0007010B10E252846DDE7EC
:1039700041480068022802D104024FEA5B2B002C68
:1039800020DDB4F5006F1DDC601E2040D0B920465C
:10399000FFF75BFA02902C48046010202A49486027
:1039A000402088600020C8604FF4806008610846AD
:1039B0001EF092FF1020FEF7F0FC05462A2D04D0E1
:1039C0002846B3E726252846B0E7204800880004AB
:1039D0001D4908600D204860402088600020C860B4
:1039E0004FF48060086108461EF076FF0D20FEF758
:1039F000D4FC05462A2D01D0284697E7012E76D91A
:103A000006FB04F0B0F1007F02D3262528468DE79F
:103A10001948006838B118480068012803D01648D2
:103A2000006802284BD10948008800040649086054
:103A300037204860402088600020C8604FF48060D4
:103A4000086108461AE000007C390020FC000020D4
:103A5000FFFF0F0004010020080100200C010020DE
:103A60009039002000010020008001401801002052
:103A70001401002000200010F80000201EF02CFF90
:103A80003720FEF78AFC05462A2D01D028464DE74F
:103A9000F74806601720F6494860402088600020FB
:103AA000C8604FF48060086108461EF015FF1720BB
:103AB000FEF773FC05462A2D01D0284636E7EC4870
:103AC000C0F800B01920EA49486040208860002012
:103AD000C8604FF48060086108461EF0FDFE1920A2
:103AE000FEF75BFC05462A2D02D028461EE7F1E0D2
:103AF00006FB04F0DF4908600120DF490860DF4869
:103B0000C0F80080DE48DF49086006FB04F048602A
:103B10000298000188600020C860086101204861A7
:103B200008461EF002FFD848006802287ED139E01E
:103B30004FF480401EF047FFA0B3CE480068C01B82
:103B400020280FD34FF0000905E05AF829001EF095
:103B500012FF09F10109B9F1080FF6D30AF1200AA1
:103B600020371FE0C3480078C01B00F0030020B9D5
:103B7000C0480068C01B800804E0BE480068C01B45
:103B80008008401C00904FF0000908E0DAF80000BF
:103B90001EF0F1FE09F101090AF1040A3F1D009827
:103BA0008145F3D3B948406B40F21A3108400028F0
:103BB000BED008201EF007FF28B108201EF00DFF20
:103BC00004252846B2E602201EF0FDFE28B10220A0
:103BD0001EF003FF02252846A8E610201EF0F3FE83
:103BE00028B110201EF0F9FE052528469EE64FF468
:103BF00000701EF0E8FE30B14FF400701EF0EDFED4
:103C00000725284692E64FF480701EF0DCFE00285F
:103C100060D09F48006838B19D480068012803D0F3
:103C20009B480068022855D1002000E015E090492B
:103C300008600C204860402088600020C8604FF475
:103C40008060086108461EF047FE0C20FEF7A5FBC9
:103C500005462A2D3ED0284668E68B480068012894
:103C600013D1012144F21A301EF026FE00BF89480C
:103C7000006818B9884800782A28F8D08648007863
:103C80002A2827D08448007850E67F48006808BB7F
:103C9000012140F21A301EF00FFE01201EF019FE25
:103CA00006FB04F14046FFF741FC00BF7B481DF0D6
:103CB00089FB0028FAD000BF7648006818B976481A
:103CC00000782A28F8D0744800782A2802D0724850
:103CD00000782BE640F2FF501EF07FFE01A8FFF7B0
:103CE0005FFB054603E001A8FFF75AFB05462A2DB6
:103CF00007D19DF804000728F5D09DF80400062898
:103D0000F1D0284612E66148406B00F4405008B1FB
:103D1000012070470020FCE710B52A2400205449F8
:103D200008600C204860402088600020C8604FF484
:103D30008060086108461EF0CFFD0C20FEF72DFBC9
:103D40000446204610BD2DE9FC4105460E462A24B6
:103D5000002700200190009051484068202101EA8E
:103D6000105018B925242046BDE8FC81474840681A
:103D7000C0B2801C4B49B1FBF0F0019000201EF056
:103D8000C9FD00F0007010B10E242046ECE7404859
:103D90000068022801D16D0A760A3D48006838B1F2
:103DA0003B480068012803D03948006802282DD11B
:103DB0002F48056020202E49486040208860002060
:103DC000C8604FF48060086108461EF085FD202021
:103DD000FEF7E3FA04462A2C01D02046C4E7244823
:103DE0000660212022494860402088600020C86089
:103DF0004FF48060086108461EF06EFD2120FEF73A
:103E0000CCFA04462A2C01D02046ADE70020184900
:103E1000086026204860402088600020C8604FF479
:103E20008060086108461EF057FD2620FEF7B5FAAF
:103E300004462A2C01D0204696E7002700E07F1C8C
:103E400001988742FBD36846FFF7AAFA044603E0CD
:103E50006846FFF7A5FA04462A2C07D19DF8000012
:103E60000728F5D09DF800000628F1D020467BE712
:103E70007C39002004010020080100200C010020F2
:103E8000FFFF0F009039002000010020008001405A
:103E9000F80000201801002014010020002000106C
:103EA000443900204019010070B504462A2514B990
:103EB0002625284670BDFE4800880004FD4908609C
:103EC0000D204860402088600020C8604FF480606A
:103ED000086108461EF000FD0D20FEF75EFA05465B
:103EE0002A2D01D02846E5E700201EF013FD2060B2
:103EF0002846DFE770B504462A26002500201EF07C
:103F000009FD00F0007010B10E26304670BD402053
:103F1000E849086010204860402088600020C860A0
:103F20004FF48060086108461EF0D6FC1020FEF7B2
:103F300034FA06462A2E01D03046E7E7DC480088EE
:103F40000004DC4908603720486040208860002079
:103F5000C8604FF48060086108461EF0BDFC372041
:103F6000FEF71BFA06462A2E01D03046CEE7D2488D
:103F7000D249086040204860602088600220C86004
:103F8000002008610120486108461EF0CEFC002098
:103F9000C84908600D204860402088600020C86043
:103FA0004FF48060086108461EF096FC0D20FEF775
:103FB000F4F906462A2E01D03046A7E70EE04FF46A
:103FC00000401EF000FD48B1002504E01EF0CFFCCB
:103FD00044F825006D1C082DF8D32034B848406BF8
:103FE00040F22A6108400028E9D008201EF0EBFCCE
:103FF00028B108201EF0F1FC0426304686E7022096
:104000001EF0E1FC28B102201EF0E7FC022630463B
:104010007CE720201EF0D7FC28B120201EF0DDFC1C
:104020000626304672E74FF400701EF0CCFC30B12B
:104030004FF400701EF0D1FC0726304666E703E01F
:104040001EF095FC2060241D4FF400101EF0BBFCF8
:104050000028F5D140F2FF501EF0BFFC403C002587
:1040600015E014F82500000634F8251001F47F410E
:1040700040EA012054F8251001F47F0140EA1120A4
:1040800054F8251040EA116044F825006D1C102DED
:10409000E7D330463AE770B5002400258948006828
:1040A000012867D1C0031EF09BFCA8B100BF06E049
:1040B0001EF05DFC8449096841F82400641C082C4A
:1040C000F6D38148006820307F4908607F48006847
:1040D00020307E4908604DE04FF480401EF080FCA7
:1040E000002847D07A48006878490968401A202893
:1040F0002BD27748007875490968401A00F0030010
:1041000030B97348006871490968401A800806E0B0
:104110006F4800686D490968401A8008401C0546D0
:1041200000240FE06B49096808681EF024FC641C39
:1041300068480068001D6749086064480068001D01
:1041400062490860AC42EDD314E0002406E0614906
:10415000096851F824001EF00EFC641C082CF6D3EC
:104160005C48006820305B4908605848006820308F
:10417000564908604FF480701EF032FCD8B35148A5
:104180000068D0B10EE01EF0F2FB4F4909680860EC
:104190004D480068001D4C4908604C480068001DEF
:1041A0004A4908604FF400101EF00DFC28B1474842
:1041B0000068474909688842E5D3474800680128F4
:1041C00004D1FFF7A9FD4549087002E02A204349C0
:1041D00008704FF480701EF00DFC00214CF23A3054
:1041E0001EF06AFB01203E49086000203749086044
:1041F0003A48007870BDFFE702201EF0F1FB70B175
:1042000002201EF0F7FB00214CF23A301EF054FB66
:1042100000202E490860022030490870EAE7082093
:104220001EF0DEFB70B108201EF0E4FB00214CF212
:104230003A301EF041FB0020244908600420274941
:104240000870D7E720201EF0CBFB70B120201EF0B5
:10425000D1FB00214CF23A301EF02EFB00201B490E
:10426000086006201D490870C4E710201EF0B8FB46
:1042700070B110201EF0BEFB00214CF23A301EF04F
:104280001BFB002011490860052014490870B1E7A4
:104290004FF400701EF0A4FB50B34FF400701EF0FA
:1042A000A9FB00214CF23A301EF006FB002019E079
:1042B000FC0000207C390020FFFF0F009039002017
:1042C0000080014000010020100100201C0100209E
:1042D000040100200C01002008010020140100202E
:1042E000180100200349086007200349087081E78E
:1042F0002A207FE71C01002014010020704700BF26
:10430000FEE700BFFEE700BFFEE700BFFEE7704725
:1043100070477047704710B51BF09CFE10BD10B57C
:1043200000F034FA10BD10B5FFF7B5FE10BD000067
:1043300070B505460C46F948F9490860084605730A
:104340000D2281201CF030FB0520F64908702CB1AD
:1043500004200870302101201BF065FF70BD10B5EE
:10436000F0480078022810D003281DD0042802D07D
:10437000052823D100E000BF0020EA4908704FF46F
:10438000405102201BF06DFF19E0E748C07B282850
:1043900008D1E549487BE5490A68E549096800F024
:1043A000FAFC00BF00BF0AE001210020FFF7C0FFB8
:1043B0004FF4405102201BF054FF00E000BF00BF4B
:1043C00010BD10B5044624B1012C07D0022C15D124
:1043D0000AE0102101201BF026FF10E04FF480516D
:1043E00002201BF03EFF0AE0102101201BF01BFF02
:1043F0004FF4805102201BF034FF00E000BF00BFEB
:1044000010BD10B5002404E0CA48005DC649085537
:10441000641CC94800888442F6D3C3484068C04938
:104420004860C14880688860C34800881F280FD052
:104430000220FFF7C6FF0020BB490860487B1A2214
:10444000052100F0C0FB00210120FFF771FF10BD26
:10445000B548C07B282803D0B348C07B2A2816D192
:10446000B148407C0106B048807C41EA0041AE483A
:10447000C07C41EA0020AC49097D0843AC49086092
:10448000A948C17D807D41EA0020A8490860A6486E
:104490000068AA4988426FD1A348407BA8490968AF
:1044A000884207D8A048807B012803DB9E48807B98
:1044B00010280DDD0220FFF784FF9B49487B242252
:1044C000052100F080FB00210120FFF731FFE8E02B
:1044D0009548C07B25285FD01BDC15286FD00EDCEB
:1044E00008286DD006DC00285BD0032830D00428D3
:1044F00067D176E00A286ED01228F9D12DE01A385B
:104500000A285ED2DFE800F0392EB17D33B1B1B1B7
:10451000B1438A286FD00EDC552867D006DC2828E6
:1045200044D02A284ED02F28E2D155E05A2829D04D
:104530008828DDD176E0A8286DD004DC8F286FD0E4
:104540009E28D5D173E0AA287BD0AF28D0D182E0B5
:104550007549487B00F0CAFB95E07349487B00F041
:1045600017FB90E07049487B00F0CFFB8BE06E4971
:10457000487B00F0CAFB86E086E06B49487B00F090
:10458000A7FB80E06849487B00F0A9FB7BE0664917
:10459000487B00F01CFB76E06349487B00F053FB4E
:1045A00071E06149487B00F099FC6CE05E49487B12
:1045B0005E490A685E49096800F0EDFB63E01BE0B4
:1045C00024E052E05849487B58490A68584909682C
:1045D00000F018FC57E02FE05349487B00F049FCFD
:1045E00051E05149487B00F093FC4CE04E49487B38
:1045F00000F0AAFC47E029E04B49487B00F0A4FC0E
:1046000041E04949487B00F09FFC3CE04649487B3B
:1046100000F09AFC37E04449487B00F095FC32E01A
:104620001EE00EE04049487B00F08EFC2BE03E4946
:10463000487B00F089FC26E03B49487B00F084FC85
:1046400021E03949487B00F07FFC1CE03649487B7B
:1046500000F07AFC17E03449487B00F075FC12E06A
:104660003149487B00F070FC0DE00220FFF7A9FE05
:104670002D49487B2022052100F0A5FA00210120C8
:10468000FFF756FE00BF0CE00220FFF79AFE264916
:10469000487B2022052100F096FA00210120FFF737
:1046A00047FE00BFD3E610B51F48C47B2149022056
:1046B0001CF091F9204908801A48007810B10128AF
:1046C0001CD102E0FFF79DFE26E02A2C08D11649F6
:1046D000487B16490A681649096800F093FB1BE0FD
:1046E0000120FFF76EFE1049487B2422052100F0CF
:1046F0006AFA00210220FFF71BFE0DE00220FFF7FF
:1047000060FE0949487B2422052100F05CFA002163
:104710000220FFF70DFE00BF00BF10BD55534253EE
:10472000083A002020010020E8390020280100205C
:1047300024010020A83900202201002055534243C3
:104740008401002070B505460C462246294681208A
:104750001CF02AF9302101201BF065FD03200549DA
:10476000087005488068001B0349886000200873B2
:1047700070BD000020010020083A002010B5FFF7AE
:10478000EEFD10BD10B5FFF78EFF10BD10B50F4840
:1047900000680F4908800846008800F400400D4971
:1047A0000988084008B11BF021FB0948008800F483
:1047B000806008490988084030B14FF6FF3003494E
:1047C000086005494868804710BD0000445C00400F
:1047D00048010020C20B00208C01002010B5FBF71F
:1047E000C1FF00208C490968887200F02DF91CF087
:1047F000CDF800208949086010BD10B50020884917
:1048000088728848C07984490968487200201BF082
:10481000D7FC4FF4007100201BF0ECFC202100209D
:104820001BF001FD182100201BF0BBFE7E4890F814
:104830002C1000201BF0FBFE582100201BF0A5FED1
:1048400000201BF0ADFD00201BF06EFD00210120BB
:104850001BF0D0FC982101201BF097FE20210120A5
:104860001BF0E1FC002101201BF0FBFC00210220D9
:104870001BF0C0FCD82102201BF093FE6A4890F880
:104880002C1002201BF0D3FE4FF4405102201BF0ED
:10489000E8FC002102201BF0C6FC634890F82C10B5
:1048A00000201BF0C4FE00201BF03EFD00201BF08A
:1048B000F0F90120594908605C485D490860002012
:1048C0005C490870FBF73AFF10BD10B5524800680C
:1048D000807A58B105205149086001201BF01DFE67
:1048E00002201BF002FE00205249087010BD10B5D6
:1048F0004F4800684D49884202D00220FFF761FD11
:1049000010BD042045490860704770477047014654
:1049100029B90120404A1268108200207047464899
:10492000FCE770B5054600243B480068007800F0BD
:104930007F00212811D1FE2D0FD137480068408813
:1049400058B935480068808838B933480068C0884D
:10495000012802D1AFF2490401E0022070BD0CB978
:104960000220FBE72C480068846100212A48006887
:1049700041820020A0470020F0E710B504462648F9
:104980000068007800F07F0021281AD1FF2C18D190
:10499000214800684088A0B91F480068808880B915
:1049A0001D480068C08860B901201BF0B6FD0220D8
:1049B0001BF09BFD1D481E49086000201D49087022
:1049C00010BD0220FCE70246002901DD02207047ED
:1049D000002A01DD0220FAE70020F8E710B50446BE
:1049E000164920461AF045FE10BD10B5044614497C
:1049F00020461AF03EFE10BD70B505460648006818
:104A0000C478052C01DD002070BD0E4800EBC40108
:104A100028461AF02EFEF7E7B80B002018020020F7
:104A2000E4AF00203A4A03088C010020555342436A
:104A3000E83900202001002084010020E00100204E
:104A4000E8010020F001002010B50120FBF77BFEFB
:104A500001244C48046000204B4908800846008827
:104A6000484908600020091D08604FF4E05046499D
:104A700008800846008843490860002010BD10B532
:104A80000120404908600020091D0860FBF75BFE1B
:104A900003203C490860002010BD10B5394800686B
:104AA00084B244F0080437480460006884B244F0DB
:104AB000040434480460FBF7E8FD10BD10B531482C
:104AC000006884B224F004042E480460FBF7E1FD82
:104AD0004FF404402B49086010BD70B50546072D02
:104AE00001D02A48057029480078082841D2DFE81B
:104AF00000F0040A1016212E4142FFF7DFFF0620C6
:104B0000224908703BE0FFF7D9FF04201F490870D5
:104B100035E002201D494870032008702FE01B4833
:104B20004078401E194948700846407808B904206A
:104B3000087024E01348006884B244F0100411485F
:104B400004600520114908700A20487017E00F48DA
:104B50004078401E0D4948700846407840B90948E1
:104B6000006884B224F0100406480460062008702F
:104B700005E000BF00BF06200449087000BF00BF69
:104B800070BD0000405C0040C20B00201D020020F0
:104B900070B50646FC48007C00F0010010B1FB4CEB
:104BA00005250BE00EB9FA4C00E0FA4CF648C07C43
:104BB000242802DCF448C57C00E024252946204650
:104BC000FFF7C0FD70BDF44B99701A73704710B5B4
:104BD00004462046FCF72AFD68B1EB49487B3A229F
:104BE0000221FFF7F0FF01210846FFF7A1FB00209B
:104BF000FFF7E7FB10BDE94850F82400000EE84934
:104C00000871E64850F82400000C4871E34830F879
:104C10002400000A8871E14810F82400C871E148B6
:104C200050F82400000C4872DE4830F82400000AD6
:104C30008872DC4810F82400C8720C21D848FFF7AD
:104C400081FD00BFD6E710B504462046FCF7EEFC18
:104C500068B1CD49487B3A220221FFF7B4FF012118
:104C60000846FFF765FB0020FFF7ABFB10BDCB4804
:104C700050F82400401E000ECB490870C74850F879
:104C80002400401E000C4870C44830F82400401E28
:104C9000000A8870C14810F82400401EC870C1483E
:104CA00050F82400000E0871BE4850F82400000C93
:104CB0004871BC4830F82400000A8871B94810F8DF
:104CC0002400C8710821B848FFF73CFD00BFCDE7BC
:104CD00010B504460421B548FFF734FD10BD10B5EA
:104CE00004460821B248FFF72DFD10BD70B50546FA
:104CF000A548C07C122802DCA348C47C00E0122432
:104D00002146A548FFF71EFD70BD10B504460121E0
:104D10000020FFF70DFB10BD2DE9F04104460D46C4
:104D200017461E46B8199D4951F82410884213D9D8
:104D30002A2D02D10220FFF744FB0020FFF741FBA0
:104D4000212205212046FFF73EFF00210120FFF729
:104D5000EFFA0020BDE8F0818B488168914850F857
:104D600024007043814214D02A2D03D10220FFF782
:104D700028FB02E00020FFF724FB8349487B242224
:104D80000521FFF720FF00210120FFF7D1FA0020C5
:104D9000E0E70120DEE770B506460C46154685487B
:104DA000007820BB7849487B2B4622462821FFF714
:104DB000B3FF00B970BD7448007B00F0800040B1C3
:104DC00002207C4908702A4621463046FCF7D2FC76
:104DD0000CE00220FFF7F5FA6B49487B24220521FD
:104DE000FFF7F1FE01210846FFF7A2FAE2E771485A
:104DF0000078022804D12A4621463046FCF7BAFC46
:104E000000BFD7E770B506460C46154669480078DE
:104E100020BB5D49487B2B4622462A21FFF77CFFB9
:104E200000B970BD5848007B00F0800040B90120F7
:104E3000604908704FF4405102201BF012FA0CE058
:104E40000020FFF7BEFA5049487B24220521FFF7D6
:104E5000BAFE00210120FFF76BFAE2E7554800781F
:104E6000012804D12A4621463046FCF7F3FC00BF56
:104E7000D7E710B504464448806848B94248007CEA
:104E800000F0040020B901210020FFF751FA0CE0E6
:104E90000220FFF796FA3C49487B24220521FFF7C0
:104EA00092FE00210120FFF743FA10BD10B5044621
:104EB0003548806868B10220FFF783FA3249487BA1
:104EC00020220521FFF77FFE00210120FFF730FAA5
:104ED00003E001210020FFF72BFA10BD10B50446B6
:104EE0002046FCF7A3FB68B12749487B3A22022100
:104EF000FFF769FE01210846FFF71AFA0020FFF7C5
:104F000060FA10BD01210020FFF712FA00BFF8E798
:104F100010B504462046FCF789FB68B11A49487B66
:104F20003A220221FFF74FFE01210846FFF700FA5F
:104F30000020FFF746FA10BDFDF7D3F8012100204D
:104F4000FFF7F6F900BFF6E710B504460E48806893
:104F500018B90020FFF735FA0BE00B48007B00F092
:104F6000800018B10020FFF72CFA02E00220FFF7C2
:104F700028FA0549487B20220521FFF724FE00215D
:104F80000120FFF7D5F910BDE83900207800002096
:104F90007D000020A1000020D10000202000002082
:104FA000EB00002018000020E3000020C5000020D6
:104FB000C90000202001002010B500BF4021FE489C
:104FC0001DF0AFF90028F9D010BD10B5FF20FB4946
:104FD0000870FFF7F1FF10BD10B5FFF7F6FF902046
:104FE000F64908700020F6490870F6480468A0B237
:104FF00010BDF0B50246F24F3970F34E7668B6F543
:10500000007F01D00E0A3E7000201AE00024EE4E10
:10501000F669361A082E01D9082602E0EA4EF6692A
:10502000361AF5B2002304E001269E402643F4B26E
:105030005B1CAB42F8DB02EA0406E14F3E70120A49
:105040000830E14EF6698642E0D8F0BD70B5014601
:1050500000201AE00023DC4DED692D1A082D01D93E
:10506000082502E0D84DED692D1AECB2002204E0CB
:10507000012595401D43EBB2521CA242F8DB01EA28
:105080000305CF4E3570090A0830CF4DED698542D2
:10509000E0D870BD70B50546CB484068B0F5007FDC
:1050A00004D100212846FFF7A4FF2DE00022C44BC5
:1050B0001A70C54A5268B2F5007F03D0C24A92887E
:1050C000120A1A7000241AE00020BF4AD269121B8B
:1050D000082A01D9082202E0BB4AD269121BD1B2C8
:1050E000002604E00122B2400243D0B2761C8E4278
:1050F000F8DB05EA0002B24B1A702D0A0834B24AF6
:10510000D269A242E0D800BF70BD2DE9F041074648
:105110000E4635460020A949087000213846FFF7A1
:1051200068FFA9484068B0F5007F02D03020A3494D
:105130000870FFF741FF00240FE0A24800782855CF
:10514000A0480178601C29549E480178A01C29546D
:105150009C480178E01C2954241D9B484068A042CB
:10516000EBD8FBF77EF80120BDE8F0814FF400603A
:1051700070472DE9F05F07468846454692484068EB
:10518000B0FBF6FBFFF7F2FF06468F484068B042DF
:1051900005D129463846FFF7B8FFBDE8F09FB7FBB9
:1051A000FBF9B7FBFBF00BFB107000FB06FA0020CD
:1051B0008249087051464846FFF71BFF30207F495F
:1051C0000870FFF7F9FE00240FE07E4800782855AC
:1051D0007C480178601C29547A480178A01C295425
:1051E00078480178E01C2954241DB442EDD3FBF724
:1051F00038F80120D1E72DE9F04107460E46154663
:10520000B04671484068B0F5007F06D150206B4928
:1052100008703846FFF73EFF08E000206749087035
:105220003846FFF737FF302064490870FFF7C4FEA7
:1052300065484069A84201D263484569002404E0FA
:105240006048007808F80400641CAC42F8D3FBF70F
:1052500008F80120BDE8F0812DE9F04104460D4633
:105260005948C06800FB04F7002608E02946384684
:10527000FFF74BFF7F1C544840680544761C52489A
:10528000C068B042F2D80120BDE8F0812DE9F041BC
:1052900007460E4635464C484068B0F5007F02D1BF
:1052A0000020464908708020444908700021384693
:1052B000FFF79FFE00240CE0285D42490870601C47
:1052C000285C0870A01C285C0870E01C285C087032
:1052D000241D3D484068A042EED810203749087090
:1052E000FFF76AFEFAF7BDFF0120BDE8F0812DE966
:1052F000F04107460E461546B04633484068B0F5C3
:10530000007F08D100202D490870802008703846A1
:10531000FFF7C0FE05E08020284908703846FFF7F7
:10532000B9FE29484069A84201D2274845690024AE
:1053300004E018F8040023490870641CAC42F8D358
:1053400010201E490870FFF737FEFAF78AFF012088
:10535000BDE8F0812DE9F04105460E461A48C068C7
:1053600000FB05F8374600240CE008EB0400394642
:10537000FFF78CFF10B90020BDE8F08112484068AB
:105380000744641C1048C068A042EED80120F3E72F
:1053900070B504460C48C06800FB04F5602007495E
:1053A00008702846FFF752FED02004490870FFF726
:1053B00003FEFAF756FF09E00014014000000570F3
:1053C000000006700000047004040020012070BD7D
:1053D0002DE9F04389B0F748C6684FF00008FF2276
:1053E0004FF48041F4481EF0C7FDF248046AA9E07A
:1053F00004FB06F0102205A9FFF7FDFEED4890F82A
:105400002800182807D104FB0661481E102201A9B4
:10541000FFF7F1FE06E004FB06F1481C102201A98B
:10542000FFF7E9FEE3484068B0F5007F49D105A8E1
:1054300001AB4179FF2902D15979FF2908D0002118
:10544000DE4A1155DE490968491CDD4A116078E0E1
:105450000178427801EB0221827801EB02456FF07E
:105460007F418D4203D1FF21D44A115528E000220B
:1054700000210DE04FF0010C0CFA01FC0CEA050CC8
:10548000BCF1000F03D00AB1002200E00122491C48
:105490001829EFDB90F803C0944506D04FF00F0CAD
:1054A000DFF8189309F804C009E0DFF80C9329F835
:1054B00015404FF07F0CDFF8049309F804C000BFDB
:1054C0003EE005A801A90278FF2A02D10A78FF2A46
:1054D00008D00022B94B1A55B94A1268521CB84B71
:1054E0001A602EE08378C27803EB0223027903EB83
:1054F00002456FF07F42954203D1FF22AF4B1A5510
:105500001DE000270CE00122BA402A403AB1B8F170
:10551000000F02D04FF0000801E04FF001087F1C9F
:10552000182FF0DB4278424503D00F22A34B1A55C7
:1055300005E0A14B23F815407F22A04B1A5500BF70
:1055400000BF641C9B480069A0423FF651AF012098
:1055500009B0BDE8F08370B5064634469548056A43
:105560001EE09648005DFF2801D1204670BD93489B
:10557000405D0F280CD12046FFF70AFF012804D117
:10558000FF208E4948552046F0E700208B490855FA
:10559000641C88480069A04201D88648046A6D1CD2
:1055A00084480069A842DCD84FF0FF30DEE72DE9DF
:1055B000FF4706460C4600200090019002900390A1
:1055C0007C480069B04203D37A480069A04203D204
:1055D000002004B0BDE8F08776484068B0F5007F51
:1055E00017D16846FF2141710470210A4170210CD6
:1055F00081700027002508E00121A940214019B150
:105600000FB1002700E001276D1C182DF4DBC770D7
:1056100017E06846FF2101708470220AC270220CD4
:1056200002710027002508E00121A940214019B19D
:105630000FB1002700E001276D1C182DF4DB477027
:1056400000BF5C48C06800FB06F910226946484666
:10565000FFF74DFE08B90020BBE7574830F814802B
:10566000B04507D053480069404503D90F2053493E
:1056700001F808007F20514988554F4921F81460EE
:105680000120A6E770B504464B4830F814504FF699
:10569000FF70854207D12046FFF75DFF0546214692
:1056A0002846FFF784FF284670BD70B504462046A3
:1056B000FFF7E8FF054621462846FFF778FF70BD53
:1056C0003C48406870473B4880687047394880686C
:1056D00038494968B0FBF1F07047364800697047B7
:1056E00034488068800A3349496A4843704700B5A6
:1056F000FFF73CFD2F4989682E4A526A5143B1FB9E
:10570000F0F000BD01462B48C068B1FBF0F229481B
:10571000C068B1FBF0F300FB1310264BDB6802FB03
:105720000300704770B504462046FFF7ABFF0546FF
:105730002846FFF72DFE08B9002070BD2046FFF770
:10574000B4FF0120F9E770B504460D462046FFF787
:10575000D9FF044629462046FFF798FD70BD70B575
:1057600004460D462046FFF7CDFF04462946204655
:10577000FFF7CBFC70BD4FF0FF30124908600020EE
:10578000486070472DE9F0410E48406808B9BDE80F
:10579000F081FFF795FF0646FFF798FF0546094899
:1057A000006800FB05F707490868FFF7BBFF002406
:1057B00011E0000004040020185A0020183A0020CC
:1057C00030040020189A00207C4A04FB0621381976
:1057D000FFF7B9FF641CAC42F6D3002077490839C3
:1057E000486000BFD3E770B504462046FFF74AFF84
:1057F00005467249FFF730FD70480838046070BDF7
:1058000010B5FFF7BFFF10BD2DE9F05F04460E464F
:10581000B146FFF755FF8246FFF7A8FC054604FB9B
:1058200005F0B0FBFAFBFFF751FFBBFBF0F7634855
:1058300008380068B84204D0FFF7A4FF3846FFF7E5
:10584000D2FFFFF740FF04FB05F1B1FBF0F200FBD4
:1058500012115A4801EB00082A46494640461EF0FC
:1058600079FB0120554908394860BDE8F09F2DE9D2
:10587000F04705460E461746FFF778FC8046FFF7CF
:1058800025FF4F49096A00FB01F9FFF719FFB0FB3B
:10589000F8F009FB00F94D44002409E004FB08611D
:1058A0002819FFF7B1FF10B90020BDE8F087641C8C
:1058B000BC42F3D30120F8E72DE9F04705460F4637
:1058C000B94605FB04F0B0FBF6F8FFF74FFC0446C1
:1058D000FFF7F6FE06463A484068A04204D1284643
:1058E000FFF710FF05460DE04046FFF70BFF80462F
:1058F000B6FBF4F0B5FBF0F100FB1150B6FBF4F190
:1059000008FB010549462846FFF733FC824650460E
:10591000BDE8F0872DE9F04705460E461746FFF72C
:10592000D5FE2749096A00FB01F8FFF71FFC8146F5
:10593000FFF7C6FEB0FBF9F008FB00F84544002471
:1059400009E004FB09612819FFF7B6FF10B9002030
:10595000BDE8F087641CBC42F3D30120F8E7704730
:1059600010B5002403E02046FFF712FD641C144824
:105970000069A042F7D810BD10B5FAF7E3FBFCF7B9
:10598000D8FBFFF729FB05E02C220E490C481EF03E
:10599000E1FA00E0F8E700BF094800690849096A30
:1059A000401A07498969401A05494862FFF7E3FE32
:1059B000FFF70EFD0446204610BD0000209A00208F
:1059C000040400204C02002070B503460C4603E09E
:1059D00014F8015B03F8015B151EA2F10102F7D177
:1059E00070BD30B5034601E003F8011B141EA2F19F
:1059F0000102F9D130BDF0B503461C460D4600202A
:105A000000BF161EA2F1010207D014F8017B15F8A1
:105A100001CBA7EB0C06301EF3D0F0BD024600E030
:105A2000521C107810B110788842F9D11078704764
:105A30002DE9F04104460D46E66AAE422FD02079AA
:105A400008B360780123324604F1300101F055FFBC
:105A500010B10120BDE8F08100202071D4E90710C9
:105A60000844B0420FD9E7780AE0E069064460785C
:105A70000123324604F1300101F03FFF781EC7B226
:105A8000012FF2DC00BF55B1607801232A4604F1F2
:105A9000300101F015FF08B10120DBE7E5620020CD
:105AA000D8E770B5044600212046FFF7C1FF054640
:105AB000002D59D1207803284FD1607900284CD08F
:105AC0000020E0624FF40072002104F13000FFF783
:105AD00088FF552184F82E12AA2184F82F12522013
